:100000000C94E4000C9498020C94C5020C940C011E
:100010000C940C010C940C010C940C010C940C012C
:100020000C940C010C940C010C940C010C940C011C
:100030000C940C010C940C010C9455050C940C01BF
:100040000C940E010C940C010C949F2F0C94EA2F2D
:100050000C940C010C940C010C940C010C940C01EC
:100060000C940C010C940C010000000024002700EB
:100070002A0000000000250028002B0000000000DE
:1000800023002600290004040404040404040202DA
:100090000202020203030303030301020408102007
:1000A0004080010204081020010204081020000012
:1000B0000007000201000003040600000000000029
:1000C0000000005EBCE2613FDD83C29C7E20A3FD98
:1000D0001F419DC3217FFCA2401E5F01E3BD3E6026
:1000E00082DC237D9FC1421CFEA0E1BF5D0380DE58
:1000F0003C62BEE0025CDF81633D7C22C09E1D430A
:10010000A1FF4618FAA427799BC584DA3866E5BBB7
:100110005907DB856739BAE406581947A5FB7826E5
:10012000C49A653BD987045AB8E6A7F91B45C69817
:100130007A24F8A6441A99C7257B3A6486D85B05C9
:10014000E7B98CD2306EEDB3510F4E10F2AC2F7177
:1001500093CD114FADF3702ECC92D38D6F31B2ECA5
:100160000E50AFF1134DCE90722C6D33D18F0C52D7
:10017000B0EE326C8ED0530DEFB1F0AE4C1291CF89
:100180002D73CA947628ABF517490856B4EA693737
:10019000D58B5709EBB536688AD495CB2977F4AA65
:1001A0004816E9B7550B88D6346A2B7597C94A1497
:1001B000F6A8742AC896154BA9F7B6E80A54D78949
:1001C0006B35EA21BA30EF2111241FBECFEFD8E002
:1001D000DEBFCDBF11E0A0E0B1E0E0EDFAE602C085
:1001E00005900D92A637B107D9F717E0A6E7B1E061
:1001F00001C01D92AB32B107E1F711E0C6ECD1E0CE
:1002000004C02297FE010E942434C23CD107C9F7E2
:100210000E94EF2E0C945B350C9400001F920F92FD
:100220000FB60F9211242F933F938F939F93AF9309
:10023000BF9380917A0190917B01A0917C01B09154
:100240007D0130917E010196A11DB11D232F2D5FEF
:100250002D3720F02D570196A11DB11D20937E0151
:1002600080937A0190937B01A0937C01B0937D01F0
:100270008091760190917701A0917801B0917901F8
:100280000196A11DB11D8093760190937701A093F3
:100290007801B0937901BF91AF919F918F913F9178
:1002A0002F910F900FBE0F901F9018958FB7F89455
:1002B00020917A0130917B0140917C0150917D0128
:1002C0008FBFB901CA010895019739F0880F991FAE
:1002D000880F991F02970197F1F70895789484B5D4
:1002E000826084BD84B5816084BD85B5826085BD32
:1002F00085B5816085BDEEE6F0E080818160808318
:10030000E1E8F0E0108280818260808380818160FA
:100310008083E0E8F0E0808181608083E1EBF0E0C1
:10032000808184608083E0EBF0E080818160808365
:10033000EAE7F0E08081846080838081826080834E
:100340008081816080838081806880831092C10079
:10035000089590E0FC01E656FF4F4491FC01EA57F6
:10036000FF4FE491EE2381F0F0E0EE0FFF1FE8591C
:10037000FF4F25913491D901662339F09FB7F89446
:100380008C91842B8C939FBF08959FB7F8948C9188
:10039000409584238C939FBF089590E0FC01E25523
:1003A000FF4F2491FC01E656FF4F44918A579F4F1F
:1003B000FC0184918823A1F02223C1F4E82FF0E00E
:1003C000EE0FFF1FEE58FF4F25913491D9018FB7E3
:1003D000F894662331F49C91409594239C938FBFAD
:1003E00008959C91942B9C938FBFFACF233001F1F9
:1003F000243040F4213091F0223001F794B59F7DF4
:1004000094BDDCCF263071F02730C1F02430B1F636
:10041000909180009F7D90938000D0CF94B59F777E
:1004200094BDCCCF9091B0009F779093B000C6CF91
:10043000909180009F7790938000C0CF9091B00002
:100440009F7D9093B000BACF90E0FC01E255FF4F42
:100450002491FC01E656FF4F44918A579F4FFC01BF
:100460008491882391F02223A1F4E82FF0E0EE0F8D
:10047000FF1FE458FF4F25913491D9018C918423BB
:1004800021E030E011F0C901089520E030E0C90119
:100490000895233001F1243040F4213091F02230CE
:1004A00021F794B59F7D94BDE0CF263071F02730C1
:1004B000C1F02430D1F6909180009F7D9093800010
:1004C000D4CF94B59F7794BDD0CF9091B0009F7753
:1004D0009093B000CACF909180009F779093800056
:1004E000C4CF9091B0009F7D9093B000BECF82307A
:1004F00008F00895E82FF0E0EE0FFF1FE158FE4FDF
:1005000071836083813041F0809169008C7F842BFE
:1005100080936900E89A089580916900440F551FFF
:10052000440F551F837F842B80936900E99A0895B7
:100530001F920F920FB60F9211242F933F934F9358
:100540005F936F937F938F939F93AF93BF93EF933B
:10055000FF9380917F0190918001009729F0E091B5
:100560007F01F09180010995FF91EF91BF91AF91CB
:100570009F918F917F916F915F914F913F912F91BB
:100580000F900FBE0F901F9018951F920F920FB6ED
:100590000F9211242F933F934F935F936F937F9309
:1005A0008F939F93AF93BF93EF93FF9380918101BC
:1005B00090918201009729F0E0918101F0918201F0
:1005C0000995FF91EF91BF91AF919F918F917F918D
:1005D0006F915F914F913F912F910F900FBE0F90B0
:1005E0001F9018951F93CF93DF93182FEB0161E0B5
:1005F0000E94A901209759F1CF3FD105A1F0E12F29
:10060000F0E0E255FF4FE491E330E1F1E43098F09F
:10061000E63069F1E73009F44FC0E43009F43FC037
:10062000C038D105A4F0812F61E00E94CD01DF9197
:10063000CF911F910895E13091F0E23089F784B5B0
:10064000806284BDC8BDDF91CF911F910895812F35
:1006500060E00E94CD01DF91CF911F91089584B594
:10066000806884BDC7BDDF91CF911F9108958091AF
:10067000B00080688093B000C093B300DF91CF9149
:100680001F91089580918000806880938000D093AE
:100690008900C0938800DF91CF911F9108958091C8
:1006A0008000806280938000D0938B00C0938A008A
:1006B000DF91CF911F9108958091B0008062809367
:1006C000B000C093B400DF91CF911F910895FC0159
:1006D0008283F3838083F1831582148208950F93BC
:1006E0001F93CF93DF938C01C091B906D091BA06C6
:1006F000DC011496ED91FC911597309709F4A1C097
:100700002C818481821748F424838585843009F400
:1007100062C0853099F18823F9F0F8010190F081E9
:10072000E02D0E171F0721F094818C819817B0F7E8
:10073000F983E883A281B381BB83AA83D383C28375
:10074000CD93DC931A8B098B84E00E947506DF91B0
:10075000CF911F910F9108952281338180819181E2
:10076000D9018D939C9380819181DC0113963C93F8
:100770002E931297CF010E945406CFCF428153810E
:1007800080819181DA018D939C9380819181DC013C
:1007900013965C934E93129781899289DC010D9098
:1007A000BC91A02D8A179B0729F014963C911497B1
:1007B0003217A8F7B183A08312968D919C9113975D
:1007C000938382831396FC93EE931297DC01119628
:1007D000FC93EE93A2CF4281538180819181DA0113
:1007E0008D939C9380819181DC0113965C934E9351
:1007F000129781899289DC010D90BC91A02D8A17F6
:100800009B0729F014963C9114973217A8F7B183EF
:10081000A08312962D913C911397338322831396D4
:10082000FC93EE931297D901ED93FC93DC0114969F
:10083000ED91FC9115972C818481821708F464CF87
:100840006CCFFC01D583C4838C8D9D8D978386836B
:100850001D8F0C8FDF91CF911F910F910895F89408
:100860000E946F0378940895EF92FF92CF93DF93E5
:100870008091B9069091BA06F894DC015C96CD910E
:10088000DC915D97EE81FF815D96FC93EE935C9722
:10089000288139812C173D07A9F15E963C915E971E
:1008A000309781F0A081B181AE17BF0731F0149667
:1008B0002C911497321708F4322F0680F781E02D1F
:1008C000309781F7FC013483E881F981A081B181FF
:1008D000B983A8831396DC93CE931297FD83EC83A0
:1008E000848D958D9F838E83D58FC48FCF0160E0DB
:1008F00070E00E9416077894CE01DF91CF91FF90AF
:10090000EF9008951D821C827894CE01DF91CF91E3
:10091000FF90EF900895EF92FF92CF93DF93809135
:10092000B9069091BA06DC015C96CD91DC915D9799
:10093000EE81FF815D96FC93EE935C97288139816F
:100940002C173D0791F15E963C915E97309781F0B0
:10095000A081B181AE17BF0731F014962C91149786
:10096000321708F4322F0680F781E02D309781F797
:10097000FC013483E881F981A081B181B983A88326
:100980001396DC93CE931297FD83EC83848D958D23
:100990009F838E83D58FC48FCF010E945406CE01D2
:1009A000DF91CF91FF90EF9008951D821C82CE01C0
:1009B000DF91CF91FF90EF90089585EA96E09093B4
:1009C000A8068093A7069093A6068093A5068FEFAE
:1009D0009FEF9093AA068093A9061092AC061092FE
:1009E000AB060895CF93DF93FC01318720875783AF
:1009F0004683A091A506B091A60614968D919C9170
:100A000015978617970760F4681B790B0D90BC91BA
:100A1000A02D14968D919C91159786179707A0F39A
:100A2000B183A0831296CD91DC911397D383C283B7
:100A30001396FC93EE931297F983E883758364838E
:100A400086E0A53AB80751F014968D919C911597C0
:100A5000861B970B15969C938E931497DF91CF91DD
:100A60000895CF93DF93FC01A081B18186E0A53A80
:100A7000B80761F014968D919C911597248135816A
:100A8000820F931F15969C938E931497C281D381E6
:100A9000B983A883A081B1811396DC93CE9312977A
:100AA00017821682DF91CF9108951F920F920FB691
:100AB0000F9211242F933F934F935F936F937F93E4
:100AC0008F939F93AF93BF93EF93FF930E94770809
:100AD0000E94B307882311F00E94CC07FF91EF9189
:100AE000BF91AF919F918F917F916F915F914F9146
:100AF0003F912F910F900FBE0F901F90189580E897
:100B000087BDEEE6F0E08081826080830895FC017D
:100B10008283F3838083F1830895CF93DF93FC0175
:100B2000F894808191818E179F0769F0EC01A8816C
:100B3000B981B183A0831396FC93EE93129760E082
:100B400070E00E9416077894DF91CF910895CF92BC
:100B5000DF92EF92FF920F931F93CF93DF937C016D
:100B60008B01F8940E948B046C01A091B906B0919E
:100B7000BA065196EC9251975296FC925297970171
:100B8000C701F70106C0548114964C91149754176D
:100B900058F10190F081E02D2E173F07A1F7119633
:100BA0009C938E93EC01EA81FB811396FC93EE9368
:100BB0001297BB83AA83B183A08385E0B8010E940A
:100BC00098068C018FEF0F3F180719F0C6010E949D
:100BD0006F037894C801DF91CF911F910F91FF901F
:100BE000EF90DF90CF900895CF01D9CFCF93DF93CF
:100BF000FC018585833061F1843028F1853081F1F5
:100C00008D3071F18FEF9FEF928B818B1586ADEA5E
:100C1000B6E094810D90BC91A02D14968C91149700
:100C20008917C0F7B183A0831296CD91DC911397F9
:100C3000D383C2831396FC93EE931297F983E883D0
:100C4000DF91CF9108958823E9F6DF91CF91089540
:100C5000A189B28914968C9114978F5F14968C9306
:100C6000A281B3818081918111969C938E93C081E2
:100C7000D181BB83AA83C6CF8DEA96E09093B0065C
:100C80008093AF069093AE068093AD061092B106A6
:100C900024E12093B8069093B7068093B60690930C
:100CA000B5068093B4060895CF93DF93FC011586B3
:100CB000ADEAB6E094810D90BC91A02D14968C9174
:100CC00014978917C0F7B183A0831296CD91DC9158
:100CD0001397D383C2831396FC93EE931297F983F1
:100CE000E883CF01DF91CF910895CF93DF93609197
:100CF000B9067091BA06EB018D8784E18093B8063E
:100D0000EDEAF6E080819181EC01A881B981B1839F
:100D1000A0831396FC93EE9312979093BA06809358
:100D2000B90621E02D870E940E08DF91CF9108952A
:100D3000FF920F931F93DF93CF93CDB7DEB72A9720
:100D40000FB6F894DEBF0FBECDBFF82E8FEF6F3F0A
:100D5000780709F448C02091B9063091BA068E018F
:100D60000F5F1F4FC80146EF55E00E94F2046091EB
:100D7000B9067091BA06DB011D96FC9284E180935E
:100D8000B8068091AD069091AE06DC01ED91FC9124
:100D90001197F093AE06E093AD062DEA36E033836B
:100DA00022839093BA068093B90621E01D962C9376
:100DB0000E940E088F819885009719F0C8010E9443
:100DC0003105E091B906F091BA06818992892A9697
:100DD0000FB6F894DEBF0FBECDBFCF91DF911F914C
:100DE0000F91FF9008956091B9067091BA06FB01CA
:100DF000F58684E18093B8068091AD069091AE06A9
:100E0000DC01ED91FC911197F093AE06E093AD06F5
:100E10002DEA36E0338322839093BA068093B90695
:100E200021E01D962C930E940E08CBCFCF93DF9329
:100E3000FC01728B618B2481A091B906B091BA0636
:100E400014969C9114979217E0F01586ADEAB6E0DF
:100E50000D90BC91A02D14968C9114978217C0F719
:100E6000B183A0831296CD91DC911397D383C28373
:100E70001396FC93EE931297F983E883DF91CF9159
:100E800008951D961C921D97CDEAD6E00990D88151
:100E9000C02D8C818917D0F71196DC93CE938A816F
:100EA0009B8113969C938E931297BB83AA83EC012C
:100EB000B983A88384E18093B806F093BA06E093DF
:100EC000B90681E08587CF01BD010E940E08DF9140
:100ED000CF910895CF93DF932091AD063091AE0668
:100EE000E091B906F091BA06D90114969C91149735
:100EF0008481891718F0DF91CF91089584E1809360
:100F0000B8068D919C919093AE068093AD06ADEAA4
:100F1000B6E0EC01BB83AA833093BA062093B906EE
:100F200081E0E9018D87158694810D90BC91A02DFB
:100F300014968C9114978917C0F7B183A0831296E9
:100F40008D919C911397938382831396FC93EE93D8
:100F50001297DC01ED93FC93C901BF010E940E08BA
:100F6000DF91CF910895E091AD06F091AE06248116
:100F7000E091B906F091BA0694818091B806882371
:100F800031F481E0291708F0089580E0089581E0A8
:100F90009217D0F380E00895CF93DF9384E180939C
:100FA000B806E091B906F091BA068091AD0690912D
:100FB000AE06DC01CD91DC91D093AE06C093AD06B8
:100FC000ADEAB6E0BB83AA839093BA068093B906D4
:100FD00021E0EC012D87158634810D90BC91A02D68
:100FE00014962C9114972317C0F7B183A0831296FF
:100FF000CD91DC911397D383C2831396FC93EE9328
:101000001297F983E883BF010E940E08DF91CF9108
:1010100008950E9444080E947F0508952F923F92F0
:101020004F925F926F927F928F929F92AF92BF92F8
:10103000CF92DF92EF92FF920F931F93CF93DF93A4
:10104000FB010DB605820EB60682FC0105800DBEC1
:1010500006800EBEDF91CF911F910F91FF90EF9010
:10106000DF90CF90BF90AF909F908F907F906F90C8
:101070005F904F903F902F9008957894C201F101B6
:1010800009950E94900908950895E091B906F0919C
:10109000BA0680E091E094878387FFCF0F931F9378
:1010A0000E943C060E94DD0483E891E060E40E9417
:1010B000CF089093BA068093B90621E0FC012587FA
:1010C0007894E091B906F091BA0685E091E09487B2
:1010D00083878BEB96E06CE670E041E025E438E036
:1010E00000E010E00E94FA081F910F9108950F93FD
:1010F0001F93CF93DF938091B80618161CF481508C
:101100008093B806E091B906F091BA068785908978
:101110000196908B87878091AB069091AC060196E3
:101120009093AC068093AB06A091A506B091A6065D
:1011300086E0A53AB80771F114968D919C911597A8
:10114000019715969C938E931497009719F505EACD
:1011500016E01696ED91FC91179717961C921E9229
:1011600016978D919C911197EC011B830A839093A4
:10117000A6068093A50618968D919C9119970995BE
:10118000A091A506B091A60614968D919C911597F5
:101190000097F9F2DF91CF911F910F910895FC0113
:1011A000648382E085871686668F158E148E138E73
:1011B000108A1786148613868DEA96E090878783B7
:1011C000A091B606B091B706B287A187F093B70693
:1011D000E093B6061896FC93EE931797CF014396CB
:1011E000948B838BCF014596908F878B968B858BC5
:1011F000CF010895EF92FF920F931F93CF93DF9348
:10120000EC01DC015F96FC018FEF8193EA17FB078D
:10121000E1F7CE01860F971FA817B90728F455E507
:101220005D93A817B907E1F7F894655170406C0F0A
:101230007D1F7E836D83FB01228BED81FE81318BCF
:10124000ED81FE81008BED81FE8117878DE398E0B3
:10125000ED81FE81938BED81FE81848B4C8382E056
:101260008D871E864E8F1D8E1C8E1B8E188A1F86A4
:101270001C861B868DEA96E098878F83E091B606E0
:10128000F091B706FA87E987D093B706C093B60600
:10129000D087C783CE0143969C8B8B8BCE0145961E
:1012A000988F8F8B9E8B8D8BCE0160E070E00E94BB
:1012B00016077894CE01DF91CF911F910F91FF9087
:1012C000EF9008951F93F894E091B906F091BA0653
:1012D000168D9481191711F0981708F48483868F5E
:1012E0000E946A077894812F1F910895BC01F89499
:1012F00086E00E94980678940895F894A091AD062F
:10130000B091AE06E091B906F091BA0614969C91A0
:1013100014978481981710F00E94CC077894089550
:101320000F931F93CF93DF93F894C091B906D09198
:10133000BA069A8B898B8B899C898E010D5E1F4F13
:101340008017910761F0FC01208131813C8B2B8B50
:101350000E9454068B899C8980179107A1F78E857E
:1013600090E083709070009761F4E985FA858F8131
:10137000988590878783AF81B8851A96FC93EE9302
:1013800019978EE00E947506DF91CF911F910F9102
:1013900008951092CD01E091CC01F0E0EE0FFF1F17
:1013A000E458FF4F85919491FC0120818091CB01FD
:1013B00028238091C5019091C601009779F42223DA
:1013C000D1F08091AB069091AC069093C6018093CA
:1013D000C5011092CA011092C9010895222359F43F
:1013E0002091AB063091AC068217930728F010923B
:1013F000C6011092C50108952091C9013091CA011A
:101400002F5F3F4F3093CA012093C9012830310527
:1014100091F72091AB063091AC06281B390B48EEB2
:1014200053E00E9490332FE030E040E050E00E9413
:10143000E5332093C1013093C2014093C30150931F
:10144000C401211531054105510549F41092C80127
:101450001092C7011092C6011092C501089560E86C
:1014600073E68FED90E00E94E5333093C80120933E
:10147000C701F0CF2F923F924F925F926F927F926F
:101480008F929F92AF92BF92CF92DF92EF92FF9294
:101490000F931F93CF93DF930E9456016093310205
:1014A000709332028093330290933402AA24AA9458
:1014B00098EE692E93E0792E812C912C32C028175A
:1014C00039074A075B0708F441C0281B390B4A0B50
:1014D0005B0B2A3031054105510508F045C06AE033
:1014E00070E0621B730B80E090E0615070408040C0
:1014F000904020ED33E040E050E00E949F33A40193
:1015000093010E940734C90101960E9476090E9446
:1015100056016093310270933202809333029093AC
:101520003402809126028230A1F00E9456019B0174
:10153000AC018091310290913202A0913302B091BE
:1015400034020097A105B10509F0B9CF89E090E018
:10155000DCCF87E292E00E942F0480912602823045
:1015600031F00E943404E1CF0E947D09D0CFA091D8
:101570003502B09136021097A1F3609137028C9139
:10158000681708F04CC01296ED91FC911397262F26
:1015900030E0E20FF31F7081763068F0109237026E
:1015A000109226028091250210923D0260E070E0C8
:1015B0000E94F202D6CF472F50E0415A5E4FEA0117
:1015C0001881112359F3210F311D90E082179307E1
:1015D0002CF3723009F467C0733020F5772369F576
:1015E0008091250210923D0260E070E00E94F202BC
:1015F00060913702A0913502B0913602CD012A2FB9
:10160000610F609337028C91681720F010923702B7
:101610008C9160E0A22FB92F681708F4B4CF109214
:1016200037029FCF743011F17430C8F0753071F00B
:101630002091350290913602E3CF7130C9F7809145
:101640002502A0923D026FEF70E0D0CF61816093E0
:1016500037028C912091350290913602DBCF618167
:101660008091250260933D0270E0C0CFF28003813B
:101670008091380290913902A0913A02B0913B02D8
:101680000097A105B10549F50E9456016093380203
:101690007093390280933A0290933B0280913D020D
:1016A00080933C025ECF0181F2808091380290915C
:1016B0003902A0913A02B0913B020097A105B10511
:1016C00009F055C00E9456016093380270933902A8
:1016D00080933A0290933B0244CFB1800E9456011E
:1016E0009B01AC018091380290913902A0913A029D
:1016F000B0913B02281739074A075B0708F46BC013
:10170000502E4424EF2DF0E0E429F529281B390B55
:101710004A0B5B0B6F01EE24FF242C153D054E0593
:101720005F0508F058C010913C026B2D70E080E01E
:1017300090E0611B7109810991090E949F33A70103
:1017400096010E940734612F70E0620F731F6F3F94
:10175000710519F014F06FEF70E077FD45C08091CE
:10176000250260933D0270E00E94F202FACE0E94D0
:1017700056019B01AC018091380290913902A091F1
:101780003A02B0913B02281739074A075B0790F0ED
:10179000281B390B4A0B5B0B3F2C2224802F90E037
:1017A00082299329A0E0B0E0281739074A075B0790
:1017B00008F4D7CE109238021092390210923A02F1
:1017C00010923B02609137022091350290913602CF
:1017D000A22FB92F15CF80912502B0923D026B2D1B
:1017E00070E00E94F202E6CF60E070E0B8CF6F9246
:1017F0007F928F929F92AF92BF92CF92DF92EF92A1
:10180000FF920F931F93CF93DF9381309105B9F02F
:10181000009731F480918502909186020E94C23433
:10182000DF91CF911F910F91FF90EF90DF90CF90BC
:10183000BF90AF909F908F907F906F90089583E0BE
:101840008093AB0182E391E09093AD018093AC0172
:1018500086E391E09093AF018093AE0185EB91E038
:101860000E94670381E08093B0011092B201109250
:10187000B1011092BD011092BE011092BF011092F1
:10188000C00182E38093B301E091AC01F091AD011E
:101890000081002309F46FC1C280D380F6019081DA
:1018A000923309F444C0933308F04FC1C02FD0E005
:1018B0002197F6013296D60120E030E06FE770E024
:1018C00010E072E3A72EB12C5FEF852E912C44E639
:1018D000642E712C0EC01F5F101708F00CC12F5F13
:1018E0003F4FDF019081923319F13296933308F024
:1018F00005C1C217D30779F71196EC90692F70E0F4
:10190000D501A61BB70BFF24A4014E195F09A49FA4
:10191000C001A59F900DB49F900D1124A301461BFB
:10192000570BBA010E94BE336E0D7F1DD4CFD60176
:1019300011962C91622F70E02093B4018091AB013D
:101940000E94F20280E092E065E00E9472248EE044
:1019500092E060E072E00E94F52110922102109264
:101960002202109223021092240286E08093250224
:10197000CBE3D1E0D0933002C0932F02109231021A
:1019800010923202109233021092340287E292E0F7
:101990000E946703109236021092350210922602BE
:1019A0008091250210923D0260E070E00E94F202F8
:1019B0008091250261E00E94A9018AE080933E02A5
:1019C000D0934902C093480210924A0210924B02EF
:1019D00010924C0210924D0280E492E00E94670344
:1019E00010924F0210924E0210923F0280913E02DE
:1019F0001092560260E070E00E94F20280913E0276
:101A000061E00E94A90189E0809358021092590276
:101A1000C4E6D0E0D0935B02C0935A0260E00E941B
:101A2000A90110925C0210925D0210925E02109267
:101A30005F021092570287E08093610281E08093F9
:101A40006202D0936402C093630287E060E00E9468
:101A5000A9018091610261E00E94CD0110926502AE
:101A60001092660210926702109268021092600251
:101A700088E080936A0210926B02D0936D02C0934B
:101A80006C0260E00E94A90180916A0261E00E94FC
:101A9000CD0110926E0210926F021092700210929D
:101AA00071021092690210927E0210927F021092CF
:101AB00080021092810282E792E00E94870586E709
:101AC00092E00E94670385E5809382028BEB80930E
:101AD000830280E28093840210928702109288022F
:101AE0001092890280E290E00E942834809385025F
:101AF0009093860295CE262F70E01ECF112331F1F0
:101B0000F9013197EE0FFF1FEC0DFD1D2181E081E2
:101B1000F0E011966C9170E030E0621B730B42E3D1
:101B200050E04E1B5F0B649FD001659FB00D749F0A
:101B3000B00D1124692F70E06E1B7F0BCD010E9448
:101B4000BE33260F622F70E0F7CED60111966C914E
:101B5000119770E042E350E0649F9001659F300D63
:101B6000749F300D1124692FC90170E00E94BE33AB
:101B7000262F70E0E1CE6FE770E02FE7DDCE2F92E9
:101B80003F924F925F926F927F928F929F92AF920D
:101B9000BF92CF92DF92EF92FF920F931F93CF935A
:101BA000DF930E94560160934A0270934B02809328
:101BB0004C0290934D02AA24AA9408EE602E03E0F2
:101BC000702E812C912C32C0281739074A075B07E9
:101BD00008F441C0281B390B4A0B5B0B2A30310536
:101BE0004105510508F045C06AE070E0621B730BC7
:101BF00080E090E0615070408040904020ED33E004
:101C000040E050E00E949F33A40193010E940734FA
:101C1000C90101960E9476090E94560160934A020A
:101C200070934B0280934C0290934D0280913F023F
:101C30008230A1F00E9456019B01AC0180914A02C2
:101C400090914B02A0914C02B0914D020097A105DA
:101C5000B10509F0B9CF89E090E0DCCF80E492E0F3
:101C60000E942F0480913F02823031F00E943404A0
:101C7000E1CF0E947D09D0CFA0914E02B0914F02DA
:101C80001097A1F3609150028C91681708F04CC036
:101C90001296ED91FC911397262F30E0E20FF31F7F
:101CA0007081763068F01092500210923F0280915D
:101CB0003E021092560260E070E00E94F202D6CF1F
:101CC000472F50E0415A5E4FEA011881112359F322
:101CD000210F311D90E0821793072CF3723009F425
:101CE00067C0733020F5772369F580913E0210922A
:101CF000560260E070E00E94F20260915002A091F2
:101D00004E02B0914F02CD012A2F610F6093500215
:101D10008C91681720F0109250028C9160E0A22FF5
:101D2000B92F681708F4B4CF109250029FCF7430C7
:101D300011F17430C8F0753071F020914E0290911D
:101D40004F02E3CF7130C9F780913E02A092560254
:101D50006FEF70E0D0CF6181609350028C91209141
:101D60004E0290914F02DBCF618180913E026093E1
:101D7000560270E0C0CFF2800381809151029091B1
:101D80005202A0915302B09154020097A105B105EF
:101D900049F50E945601609351027093520280935C
:101DA00053029093540280915602809355025ECF65
:101DB0000181F2808091510290915202A0915302D0
:101DC000B09154020097A105B10509F055C00E94D9
:101DD0005601609351027093520280935302909384
:101DE000540244CFB1800E9456019B01AC01809106
:101DF000510290915202A0915302B09154022817BF
:101E000039074A075B0708F46BC0502E4424EF2DB6
:101E1000F0E0E429F529281B390B4A0B5B0B6F0115
:101E2000EE24FF242C153D054E055F0508F058C033
:101E3000109155026B2D70E080E090E0611B7109FC
:101E4000810991090E949F33A70196010E940734DE
:101E5000612F70E0620F731F6F3F710519F014F06E
:101E60006FEF70E077FD45C080913E0260935602AF
:101E700070E00E94F202FACE0E9456019B01AC0172
:101E80008091510290915202A0915302B09154025C
:101E9000281739074A075B0790F0281B390B4A0BB4
:101EA0005B0B3F2C2224802F90E082299329A0E015
:101EB000B0E0281739074A075B0708F4D7CE10921D
:101EC00051021092520210925302109254026091E9
:101ED000500220914E0290914F02A22FB92F15CFA0
:101EE00080913E02B09256026B2D70E00E94F20289
:101EF000E6CF60E070E0B8CF2F923F924F925F92B2
:101F00006F927F928F929F92AF92BF92CF92DF9209
:101F1000EF92FF920F931F93DF93CF93CDB7DEB76E
:101F20002C970FB6F894DEBF0FBECDBF8EE092E0C7
:101F300060E00E943A230E94560160932102709350
:101F400022028093230290932402AFEF4A2E512C59
:101F5000F4E66F2E712CE8EE8E2EE3E09E2EA12C7F
:101F6000B12C11E08EE092E00E940422882309F453
:101F700076C08EE092E00E940422882309F07AC0A5
:101F800089E090E00E9476090E9456019B01AC0115
:101F90008091210290912202A0912302B09124020B
:101FA0000097A105B10509F4C6C0281739074A07EB
:101FB0005B0708F4C0C069017A01C81AD90AEA0AA5
:101FC000FB0AD701C601883E23E0920720E0A20762
:101FD00020E0B20708F0B2C068EE73E06C197D092A
:101FE00080E090E0615070408040904020ED33E010
:101FF00040E050E00E949F33A50194010E94073405
:10200000C90101960E9476090E945601609321023F
:102010007093220280932302909324028FB7F89446
:102020009091CD01992309F482C01092C6011092BB
:10203000C5011092C8011092C7011092C1011092FF
:10204000C2011092C3011092C4011092CD018FBF42
:102050008EE092E00E940422882309F08ACF8EE06D
:1020600092E00E9464228EE092E00E940422882383
:1020700009F486CF8EE092E00E943D238DE393E049
:102080000E9476098EE092E060E00E9417246B01C6
:102090007C0120E030E04EEF52EC0E949A31882320
:1020A00009F46ECFC701B60120E030E040EA52E407
:1020B0000E949A3118160CF463CFC701B60120E0D4
:1020C00030E040E751E40E94293387FD59CFC70132
:1020D000B60120E030E040E251E40E942D3320E0E0
:1020E00030E040E05FE30E9422310E9487310E948D
:1020F0000632E62EF72EF7FC1FC174E6C72ED12C50
:10210000EC0CFD1C85EB91E00E942F048091B10145
:102110009091B2010097A9F4F092B201E092B1015E
:102120008091B0018130C9F00E94340429CF10930E
:10213000CD018FBF8DCF80ED93E064CF0E947D09EC
:1021400063CFE80EF91EF694E794F092B201E092A4
:10215000B1018091B001813039F7A091AE01B09109
:10216000AF01CD90DC901197E091AC01F091AD0101
:102170009091B3018181981728F012968C91129753
:10218000C81AD108CE14DF0408F0D9C00E94560145
:102190009B01AC018091BD019091BE01A091BF0156
:1021A000B091C0018F839887A987BA870097A1054E
:1021B000B10509F4E2C0281739074A075B070CF498
:1021C000DCC08F819885A985BA85281B390B4A0BFD
:1021D0005B0B203D97E0390790E0490790E05907F5
:1021E0000CF4D3C08091B1019091B201E091AE01A5
:1021F000F091AF01638174818617970708F026C1BB
:10220000E091AC01F091AD01E180AC014C195D09A8
:10221000FF24C3018E199F09489F9001499F300DEB
:10222000589F300D11246C197D09C9010E94BE33DD
:102230006E0D7F1D6B01EE24FF24A5E6CA16D104A6
:10224000E104F1042CF094E6C92ED12CE12CF12C00
:102250000C2DBFEF0B9FC0011124B3010E94BE33B0
:10226000C092B3012080222009F45EC0E280F38096
:10227000F7019081C91609F471C1C91608F474C137
:10228000C22CDD240894C108D10897012E5F3F4F6E
:102290003A832983D70120E030E080E0402F50E0EE
:1022A0005E834D83482FFC86EB86E981FA810EC060
:1022B0004F5F4215C8F52F5F3F4FDF01908109172F
:1022C00009F449C13296091708F41DC1C216D30694
:1022D00079F711965C91692F70E08D819E81861B44
:1022E000970B9C838B83A52FB0E0BA83A983C2018F
:1022F0008A1B9B0BAB81BC81A89F7001A99FF00C2E
:10230000B89FF00C1124F886EF827301E61AF70AE1
:10231000B7018F8198850E94BE3389819A81680FA9
:10232000791F4F5F421538F26093B4018091AB0181
:1023300070E00E94F202F8CEEE24FF24DECE10926E
:10234000B3018081882339F00280F381E02D808100
:10235000882309F477C060E070E080E08093B401E6
:102360008091AB010E94F2021092BD011092BE0159
:102370001092BF011092C001D7CE2093BD013093BF
:10238000BE014093BF015093C001A4E6A093B301E6
:10239000E091AC01F091AD01B081B983BB2309F4A8
:1023A00000C10280F381E02D4081443609F4F7C07A
:1023B000453608F0E5C0B9812B2E33240894210856
:1023C000310852E0E52EF12CEE0EFF1ECF01CC2499
:1023D000DD246FEF70E000E097017F01F90111C08B
:1023E0000F5F9981091708F09FCF0894C11CD11C79
:1023F000CF014081443609F4D2C03296453608F008
:10240000D3C0C214D30461F7DC0111968C911197EB
:10241000B301641B7109282F30E03C832B839201A8
:102420004B815C81241B350B629FC001639F900D23
:10243000729F900D11240E94BE338B819C81680F86
:10244000791FCECF8181682F70E088CFA4E6A0935A
:10245000B301E091AC01F091AD01B081B983BB2330
:1024600009F49FC00280F381E02D4081443609F4D5
:1024700096C0453608F084C0B9812B2E33240894C9
:102480002108310822E0E22EF12CEE0EFF1ECF01D2
:10249000CC24DD246FEF70E000E097017F01F901AB
:1024A00011C00F5F9981091708F03ECF0894C11C35
:1024B000D11CCF014081443609F471C032964536B3
:1024C00008F072C0C214D30461F7DC0111968C913C
:1024D0001197B301641B7109282F30E03C832B83D3
:1024E00092014B815C81241B350B629FC001639F6D
:1024F000900D729F900D11240E94BE338B819C81A0
:10250000680F791FCECFEB84FC84442361F1F9017D
:102510003197EE0FFF1FEE0DFF1DE180E081F0E02F
:10252000202F30E02E1B3F0B11964C9150E0FF24E2
:102530004E195F09249FD001259FB00D349FB00D27
:102540001124692F70E06E1B7F0BCD010E94BE33FA
:102550006E0D7F1DE9CEFA83E9837F01D7011196C5
:102560006C911197E1CE7D01F7012181209F9001AF
:102570001124692FC90170E00E94BE33D5CEFC0141
:10258000818190E0869D9001879D300D969D300D54
:102590001124642FC90170E00E94BE33C5CE618151
:1025A000C3CE6FEF70E0C0CE002349F3D601119780
:1025B000AA0FBB1FAE0DBF1D1196EC901197EC91A9
:1025C000F0E0DC0111968C9190E0FF248E199F09B8
:1025D00093012E1B3F0B829FD001839FB00D929FD2
:1025E000B00D1124642FAECF2F923F924F925F9285
:1025F0006F927F928F929F92AF92BF92CF92DF9213
:10260000EF92FF920F931F93DF93CF9300D000D0F0
:10261000CDB7DEB78DE061E00E94A90184E061E002
:102620000E94CD0184E061E00E94A9018091260210
:10263000813049F087E292E00E942F0481E080938C
:1026400026020E943404809125029FEF90933D0260
:102650006FEF70E00E94F20280913F02882341F008
:1026600080E492E00E942F0410923F020E94340402
:1026700080913E021092560260E070E00E94F202E9
:102680000E94560160937E0270937F0280938002C5
:102690009093810214E6772473946FEF262E312CE9
:1026A00052E0652E44E6442E512C012F1091A201D8
:1026B000101709F4F5C110925C0210925D0210929D
:1026C0005E0210925F0210925702112309F0F0C1CE
:1026D0008DE061E00E94CD0100E08FB7F894C090DA
:1026E000A401F090A5011091A6018FBF8091A801CF
:1026F000C81641F0C0FE3BC384E060E00E94CD01FB
:10270000C092A8018091A901F81609F441C0AF2D2B
:10271000A23008F44AC3CF2CC69487E292E00E940C
:102720002F04609226021092360210923502109207
:102730003702109238021092390210923A02109227
:102740003B02E0912F02F09130023097E9F02081B6
:102750002223D1F040913502309136020180F2817E
:10276000E02D80E004C08F5F3496821748F4918199
:10277000C916C9F74E2F3F2F8F5F34968217B8F3D3
:1027800040933502309336020E943404F092A9013E
:102790008091AA01181709F440C0123008F4ECC265
:1027A000F12EF69480E492E00E942F0460923F02A2
:1027B00010924F0210924E0210925002109251024B
:1027C000109252021092530210925402E091480269
:1027D000F09149023097E9F020812223D1F0409115
:1027E0004E0230914F020180F281E02D80E004C062
:1027F0008F5F3496821748F49181F916C9F74E2FEE
:102800003F2F8F5F34968217B8F340934E02309378
:102810004F020E9434041093AA010E9456016B01DA
:102820007C0180915C0290915D02A0915E02B0916A
:102830005F020097A105B105F9F0C816D906EA06AE
:10284000FB06D0F0A7019601281B390B4A0B5B0B46
:1028500080915A0290915B02A0E0B0E028173907FE
:102860004A075B0708F402C310925C0210925D02F3
:1028700010925E0210925F0280915802909159026C
:10288000992309F460C20E94240221E0813091055D
:1028900009F45EC280915702821751F0C0925C0227
:1028A000D0925D02E0925E02F0925F0220935702A6
:1028B00011E0222309F410E08091650290916602F4
:1028C000A0916702B09168020097A105B105F9F0E7
:1028D000C816D906EA06FB06D0F0A7019601281B08
:1028E000390B4A0B5B0B8091630290916402A0E06C
:1028F000B0E0281739074A075B0708F4BAC21092FC
:10290000650210926602109267021092680280912E
:10291000610290916202992309F41CC20E94240270
:1029200021E08130910509F41AC28091600282177A
:1029300051F0C0926502D0926602E0926702F09276
:102940006802209360022111126080916E029091C2
:102950006F02A0917002B09171020097A105B105BC
:10296000F9F0C816D906EA06FB06D0F0A7019601D1
:10297000281B390B4A0B5B0B80916C0290916D0206
:10298000A0E0B0E0281739074A075B0708F46BC2DC
:1029900010926E0210926F021092700210927102E9
:1029A00080916A0290916B02992309F4C5C10E943B
:1029B000240221E08130910509F4C3C180916902AC
:1029C000821751F0C0926E02D0926F02E0927002B4
:1029D000F092710220936902211114608091A30189
:1029E000181729F08FB7F8941093A3018FBF0E9496
:1029F00056019B01AC0180917E0290917F02A091D3
:102A00008002B09181020097A105B10509F44CC084
:102A1000281739074A075B0708F446C0281B390BFB
:102A20004A0B5B0B2A3031054105510508F0D5C131
:102A30006AE070E0621B730B80E090E061507040D0
:102A40008040904020ED33E040E050E00E949F3312
:102A500028EE33E040E050E00E940734690108941A
:102A6000C11CD11C86E792E00E942F0482E792E00D
:102A7000B6010E94A705FFEF8F3F9F0711F00E944C
:102A800034040E94560160937E0270937F0280930B
:102A90008002909381021091A201101709F00BCED1
:102AA000002309F41ACE12C1B9E0CB2ED12CDACF13
:102AB0008DE060E00E94CD0185EB91E00E942F0443
:102AC0007092B0011092BD011092BE011092BF0130
:102AD0001092C0011092B301A091AE01B091AF016C
:102AE000AD90BC901197E091AC01F091AD01818166
:102AF000882329F412968C911297A81AB108809114
:102B0000B1019091B201A816B90608F0C1C00E94A7
:102B100056019B01AC018091BD019091BE01A09135
:102B2000BF01B091C0010097A105B10509F4A4C18E
:102B3000281739074A075B070CF49EC1281B390B7D
:102B40004A0B5B0B203D87E0380780E0480780E0B8
:102B500058070CF499C14091B1015091B201E09134
:102B6000AE01F091AF01638174814617570708F0F9
:102B700013C2E091AC01F091AD01C1804A195B092B
:102B8000DD24C2018C199D09489F9001499F300D99
:102B9000589F300D11246A197B09C9010E94BE3368
:102BA0006C0D7D1D6B01EE24FF2425E6C216D104B9
:102BB000E104F1042CF024E6C22ED12CE12CF12CFE
:102BC0000C2DAFEF0A9FC0011124B2010E94BE3349
:102BD000C092B301F080FF2009F452C0828093803C
:102BE000F4015081C51609F4A3C1C51608F420C22A
:102BF000CF2CDD240894C108D10882E0A82EB12C86
:102C0000A80CB91CD40120E030E040E0802F90E017
:102C10009A838983DC82CB82F5010EC04F5F4F150A
:102C200078F52F5F3F4FDF015081051709F481C10F
:102C30003296051708F487C18B819C818217930710
:102C400069F71196CC90652F70E0A980BA80A61A1A
:102C5000B70ADD24C1018C199D09A89ED001A99E47
:102C6000B00DB89EB00D1124C201861B970BBC019C
:102C7000CD010E94BE336C0D7D1D4F5F4F1588F254
:102C80006093B4018091AB0170E00E94F2021CC01D
:102C90008081882309F445C10280F381E02D808181
:102CA000882309F441C160E070E080E08093B401C2
:102CB0008091AB010E94F2021092BD011092BE0100
:102CC0001092BF011092C0010E94340489E00E945A
:102CD00024028130910509F4ADC084E061E00E94D6
:102CE000CD0180912602813041F087E292E00E947E
:102CF0002F04709226020E943404809125029FEFD7
:102D000090933D026FEF70E00E94F20280913F02CB
:102D1000882341F080E492E00E942F0410923F0249
:102D20000E94340480913E021092560260E070E0EE
:102D30000E94F202012F5BCE0E9424028130910595
:102D400081F020E03BCE0E9424028130910559F0B1
:102D500020E0A0CD0E9424028130910531F020E0D6
:102D6000E4CD21E02BCE21E095CD21E0DECD84E045
:102D700061E00E94CD01C4CC112309F446C08091CA
:102D80003F02813041F080E492E00E942F04709273
:102D90003F020E94340480913E02EFEFE09356021E
:102DA0006FEF70E00E94F20236CDFF20C9F08091F3
:102DB0002602813041F087E292E00E942F04709257
:102DC00026020E94340480912502BFEFB0933D0299
:102DD0006FEF70E00E94F202D9CC0E947D0951CEC3
:102DE00080912602882341F087E292E00E942F041E
:102DF000109226020E9434048091250210923D0216
:102E000060E070E00E94F202C1CC80913F02882312
:102E100041F080E492E00E942F0410923F020E9451
:102E2000340480913E021092560260E070E00E94ED
:102E3000F202F1CC84E060E00E94CD018091260294
:102E4000882341F087E292E00E942F04109226022C
:102E50000E9434048091250210923D0260E070E0EF
:102E60000E94F20253CF20916902B6CD2091570201
:102E70001FCD2091600267CD2093BD013093BE012C
:102E80004093BF015093C00194E69093B301E09149
:102E9000AC01F091AD01F080FF2009F420C1A280C7
:102EA000B380D5018C90B82DB43609F4CEC0B536B8
:102EB00008F010C14F2D50E041505040F5013296BE
:102EC000D50120E030E06FEF70E000E0882D4A018E
:102ED0000FC00F5F0F1508F0D3CE2F5F3F4FDF01FC
:102EE0008081843609F4B0C03296853608F0B6C0C9
:102EF0002815390571F71196CC901197B201681B0E
:102F00007109DD24A1014C195D09649FC001659F11
:102F1000900D749F900D11240E94BE336C0D7D1D89
:102F2000D8CF60E070E0C2CE8181682F70E0BECE65
:102F3000D40111966C916093B4018091AB0170E063
:102F40000E94F202C1CE442309F473C0F901319703
:102F5000EE0FFF1FE80DF91D4181808190E0202FC9
:102F600030E0281B390B11966C91119770E0C42E3C
:102F7000DD246C197D09269FF001279FF00D369FF7
:102F8000F00D1124652F70E0681B790BCF010E94B2
:102F9000BE336C0D7D1D74CEB4E6B093B301E091E9
:102FA000AC01F091AD01F080FF2009F498C0A2803F
:102FB000B380F5018080F82DF43609F44AC0F53667
:102FC00008F078C04F2D50E041505040F501329646
:102FD000D50120E030E06FEF70E000E0882D4A017D
:102FE0000EC00F5F0F1508F04BCE2F5F3F4FDF0174
:102FF0008081843669F13296853608F057C02815ED
:10300000390579F71196CC901197B201681B7109B7
:10301000DD24A1014C195D09649FC001659F900DDD
:10302000749F900D11240E94BE336C0D7D1DD9CF6D
:10303000D40111968C911197809FC0011124652FA6
:1030400070E00E94BE331CCE5F01F501618118CE95
:103050005F01D50111966C91119712CE882E002335
:10306000C1F1F9013197EE0FFF1FEA0DFB1D418100
:10307000208130E011968C91119790E0C42EDD24D0
:103080008C199D09A201421B530B849FF001859F5F
:10309000F00D949FF00D1124682D70E0621B730BEE
:1030A000CF010E94BE336C0D7D1DEACD882E00231A
:1030B000C1F65D01F501218130E0249DC001259D0F
:1030C000900D349D900D1124682D70E00E94BE3348
:1030D000D7CD5D01D50111962C911197EDCF6FEFF2
:1030E00070E0CECD2F923F924F925F926F927F927F
:1030F0008F929F92AF92BF92CF92DF92EF92FF9208
:103100000F931F93DF93CF93CDB7DEB729970FB6F9
:10311000F894DEBF0FBECDBF0E9456016093F90147
:103120007093FA018093FB019093FC0186E896E08E
:1031300040E855E260E070E00E9431308091850205
:10314000909186029093D4018093D30113E08091F3
:10315000A201882331F58FB7F8942091A3018FBF86
:103160008091A7012817E9F02093A701809182029E
:10317000909183029093D6018093D5011093D7014B
:1031800082E08093D8012093D90181E08227809347
:10319000DA0186E896E065ED71E046E050E00E94D5
:1031A000F73086E896E00E94FF2E9093CF0180933F
:1031B000CE01181619060CF0A0C005E0A9E0EA2E11
:1031C000FCE09F2EE4E68E2ECC24CA9472E0F72E0B
:1031D0001DC030918902231729F53CEF923009F484
:1031E00084C09330A9F11092870210928802109245
:1031F00089028091CE019091CF0101979093CF01E8
:103200008093CE01181619060CF0B1C086E896E03E
:103210000E942F2F8093D2012091870290918802E3
:103220009330B8F630918402321780F030E092305B
:10323000A8F6E92FF0E0EE57FD4F2081821799F6AE
:103240009F5F909388023323A1F2CDCF3CEFEFCF65
:10325000E0918502F0918602E20FF11D808380915A
:1032600087028F5F8093870240918902841758F309
:103270002091850230918602413009F4C2C5C9010E
:103280000196542F5250850F911D542FF9016191D1
:103290005627E817F907D9F7F901E40FF11D31971F
:1032A0008081581709F09FCF809188028F5F8093AB
:1032B00088028091A201882331F01092A20182E756
:1032C00092E00E948D050E9456016093F90170936F
:1032D000FA018093FB019093FC0130918802343015
:1032E00009F44AC01092D1017ECF809389021093D5
:1032F0008802882309F0A7CF76CF0E94560120913B
:10330000F9013091FA014091FB015091FC01621BDF
:10331000730B840B950B69392AE3720720E082074F
:1033200020E0920720F11092A5018091A5018093E1
:10333000A6018091A6018093A4018091A4018093AD
:10334000A3018FEF8093AA018093A9018093A80124
:103350008093A70181E08093A2010E9456016093AF
:10336000F9017093FA018093FB019093FC0181E0D5
:1033700090E00E947609EBCE809189028150809383
:10338000D101882309F42FCFE091D301F091D4012A
:1033900020812093D001283009F4BAC1293020F5CA
:1033A000253009F482C1263008F07CC0213009F4B0
:1033B00042C2233009F41DC280918202909183029F
:1033C0009093D6018093D501F092D701C092D80195
:1033D0008DEF8093D90186E896E065ED71E045E0D8
:1033E00050E00E94F730FFCE2B3009F47FC12C3023
:1033F00010F5293009F4D3C12A30F1F62091A30148
:1034000080918202909183029093D6018093D5019E
:103410001093D701F092D8012093D90181E082273F
:103420008093DA0186E896E065ED71E046E050E0D1
:103430000E94F730D8CE2C3009F427C22D3009F085
:10344000BBCF813071F08FB7F894E091D301F09148
:10345000D40191819093A6018FBFE091D301F091A7
:10346000D40180918202909183029093D60180933F
:10347000D5011093D7018DE08093D801918190936D
:10348000D9018EE089278093DA0186E896E065ED20
:1034900071E046E050E00E94F73082E792E00E943F
:1034A0008D05A1CE263009F458C0273009F084CF0D
:1034B000813009F498CED18085EB91E00E942F04F1
:1034C000D092B0011092BD011092BE011092BF01C6
:1034D0001092C0011092B3019D2D913009F4DEC20B
:1034E0000E94340485EB91E00E942F048091B0018A
:1034F0008093FD018091B3018093FE018091B4011E
:103500008093FF010E943404809182029091830293
:103510009093D6018093D5010093D701E092D80112
:10352000A9EDB1E0EDEFF1E083E001900D92815063
:10353000E1F78091D9019091DA018927892590914D
:10354000DB0189278093DC0186E896E065ED71E078
:1035500048E050E00E94F73046CE813009F443CE77
:10356000D18085EB91E00E942F041092B0013D2D97
:103570006C2D369FC001112464E670E00E94BE33BA
:103580006F3F710519F010F06FEF70E0D092B3014A
:10359000E091AC01F091AD017080772009F454C046
:1035A000828193819A838983DC019C91D91609F4E5
:1035B00073C3D91608F4C2C3A72CBB240894A1086E
:1035C000B10829803A80E2E0F0E02E0E3F1EA9818A
:1035D000BA8120E030E040E04D2C55245C824B82E3
:1035E000F1010EC04F5F471578F52F5F3F4FDF01A8
:1035F0009081D91609F452C33296D91608F452C3F1
:103600002A153B0579F711964C90692F70E02B80B5
:103610003C80261A370A55248FEF90E084199509CB
:10362000289ED001299EB00D389EB00D112484E64D
:1036300090E0861B970BBC01CD010E94BE33640D48
:10364000751D4F5F471588F26093B4018091AB01FF
:1036500070E00E94F2020E94340485EB91E00E9427
:103660002F048091B0018093FD018091B30180937C
:10367000FE018091B4018093FF010E943404809187
:103680008202909183029093D6018093D50100939A
:10369000D701E092D801A9EDB1E0EDEFF1E083E0D0
:1036A00001900D928150E1F744CF813071F08FB7D6
:1036B000F894E091D301F091D40191819093A50108
:1036C0008FBFE091D301F091D4018091820290915B
:1036D00083029093D6018093D5011093D701009374
:1036E000D80191819093D90186E0CCCE2091A4019C
:1036F00080918202909183029093D6018093D501AC
:103700001093D7013093D8012093D90187E087CE59
:10371000813009F468CD81812AE0829F5001112413
:1037200085EB91E00E942F042091B1013091B2010C
:103730002115310509F0C0C0B092B201A092B101CB
:103740008091B001813009F4CAC00E94340485EB35
:1037500091E00E942F048091B0018093FD0180913F
:10376000B3018093FE018091B4018093FF010E9418
:10377000340480918202909183029093D6018093C9
:10378000D5010093D701E092D801A9EDB1E0EDEFAA
:10379000F1E083E001900D928150E1F7CACE85EB14
:1037A00091E02D830E942F048091B0018093FD0150
:1037B0008091B3018093FE018091B4018093FF0159
:1037C0000E94340480918202909183029093D601EA
:1037D0008093D5010093D7012D812093D801A9EDC5
:1037E000B1E0EDEFF1E083E001900D928150E1F75F
:1037F000A0CE813061F08181882309F454C09FB745
:10380000F8948091A40181608093A4019FBF2091CE
:10381000A40180918202909183029093D6018093BB
:10382000D5011093D70184E08093D8012093D9016A
:1038300087E0822728CE8091820290918302909324
:10384000D6018093D5018BE18093D7012093D801D5
:10385000A9EDB1E0EAE0F1E089E101900D9281503B
:10386000E1F7E7EDF1E09191892721E0E23FF207EE
:10387000D1F78093F20186E896E0BF016D51704068
:103880004EE150E00E94F730AECC809182029091E0
:1038900083029093D6018093D501F092D7012093B3
:1038A000D8018EE096CD9FB7F8948091A4018E7FC9
:1038B0008093A4019FBFABCFC501880F991F820FD2
:1038C000931F63E070E00E94BE335B017093B2010E
:1038D0006093B1018091B001813009F036CFA091A1
:1038E000AE01B091AF016D907C901197E091AC0169
:1038F000F091AD019091B3018181981728F0129653
:103900008C911297681A71086A147B0408F0F6C14A
:103910000E9456019B01AC018091BD019091BE01B6
:10392000A091BF01B091C0010097A105B10509F4B4
:1039300013C2281739074A075B070CF40DC2281B6E
:10394000390B4A0B5B0B203D67E0360760E046070A
:1039500060E056070CF408C28091B1019091B20169
:10396000E091AE01F091AF016381748186179707F2
:1039700008F033C3E091AC01F091AD01A180AC013E
:1039800046195709BB2484E690E08A199B09489F91
:103990009001499F300D589F300D11246619770909
:1039A000C9010E94BE336A0D7B1D2B01662477245A
:1039B00035E643165104610471042CF034E6432EBD
:1039C000512C612C712CD42C642D7C2D679FC0014F
:1039D000112464E670E00E94BE334092B30140803F
:1039E000442009F453C062807380D3019C91D9169E
:1039F00009F4F0C2D91608F497C3A42CBB24089488
:103A0000A108B108F3013296FA83E983D30120E0DB
:103A100030E040E02D2C33243C822B82798668866E
:103A20000EC04F5F441590F52F5F3F4FDF0190812F
:103A3000D91609F4CCC23296D91608F427C32A1530
:103A40003B0579F711962C90692F70E06B807C8094
:103A5000661A770A33248FEF90E082199309689EE3
:103A6000D001699EB00D789EB00D1124BF83AE8346
:103A700084E6682E712C661A770AB301CD010E9484
:103A8000BE33620D731D4F5F441570F26093B40135
:103A90008091AB0170E00E94F20257CEA091AE017E
:103AA000B091AF01AD90BC901197E091AC01F09155
:103AB000AD018181882329F412968C911297A81A5E
:103AC000B1088091B1019091B201A816B90608F031
:103AD000C6C00E9456019B01AC018091BD0190912E
:103AE000BE01A091BF01B091C0010097A105B10531
:103AF00009F489C1281739074A075B070CF483C109
:103B0000281B390B4A0B5B0B203DA7E03A07A0E0CE
:103B10004A07A0E05A070CF47EC18091B101909150
:103B2000B201E091AE01F091AF016381748186171B
:103B3000970708F0C8C1E091AC01F091AD01618038
:103B4000AC014A195B09772484E690E0861997094D
:103B5000489F9001499F300D589F300D11246A19DC
:103B60007B09C9010E94BE33660D771D2B016624B7
:103B7000772435E643165104610471042CF074E691
:103B8000472E512C612C712CD42C642D7C2D679FD9
:103B9000C001112464E670E00E94BE334092B3017C
:103BA0004080442009F453C062807380D3019C910B
:103BB000D91609F407C2D91608F419C3A42CBB24DA
:103BC0000894A108B108F3013296FA83E983D3017E
:103BD00020E030E040E02D2C33243C822B8279869B
:103BE00068860EC04F5F441590F52F5F3F4FDF0191
:103BF0009081D91609F4E7C13296D91608F4B9C1F3
:103C00002A153B0579F711962C90692F70E06B808F
:103C10007C80661A770A33248FEF90E0821993092B
:103C2000689ED001699EB00D789EB00D1124BF83AF
:103C3000AE8354E6652E712C661A770AB301CD0166
:103C40000E94BE33620D731D4F5F441570F2609386
:103C5000B4018091AB0170E00E94F20241CC8081FE
:103C6000882309F42DC10280F381E02D808188230F
:103C700009F422C160E070E080E08093B40180919B
:103C8000AB010E94F2021092BD011092BE0110928F
:103C9000BF011092C00124CCA981BA8111966C9108
:103CA0001197D2CC442309F447C0A9014150504098
:103CB000440F551FE981FA814E0F5F1FFA01A18061
:103CC0008081E82FF0E02D2D30E02E1B3F0B119668
:103CD0004C9150E0BB244A195B09249FD001259FD9
:103CE000B00D349FB00D1124692F70E06E1B7F0B57
:103CF000CD010E94BE336A0D7B1DA6CC1092B3018C
:103D00008081882339F00280F381E02D808188232F
:103D100009F4CEC060E070E080E08093B40180914F
:103D2000AB010E94F2021092BD011092BE011092EE
:103D3000BF011092C00109CDBA83A983A981BA81BC
:103D400011962C91BD2D2B9F90011124692FC90133
:103D500070E00E94BE3378CC2093BD013093BE0149
:103D60004093BF015093C0018092B301E091AC0138
:103D7000F091AD01D080DD2009F4A5C2628073808E
:103D8000D3012C91243609F49CC2253608F083C255
:103D90004D2C5524089441085108F3013296D30163
:103DA000AA24BB246FEF70E040E010C04F5F4D15B8
:103DB00008F06CCE0894A11CB11CDF0120812436D0
:103DC00009F460C13296253608F0BBC1A414B504CD
:103DD00069F711962C90119764E670E0621B7109E7
:103DE00033242FEF30E022193309629FC001639F13
:103DF000900D729F900D11240E94BE33620D731DB1
:103E0000D5CF51E049CA2093BD013093BE01409304
:103E1000BF015093C0018092B301E091AC01F091D9
:103E2000AD01D080DD2009F449C2A280B380F50144
:103E30002081243609F4A5C1253608F0C6C14D2CD1
:103E40005524089441085108F5013296D50166249D
:103E500077246FEF70E040E010C04F5F4D1508F021
:103E6000F6CE0894611C711CDF012081243609F410
:103E700087C13296253608F089C16414750469F744
:103E800011962C90119764E670E0621B710933243F
:103E90002FEF30E022193309629FC001639F900D1C
:103EA000729F900D11240E94BE33620D731DD5CFF9
:103EB0008181682F70E031CF8181682F70E0DDCE85
:103EC00060E070E0DACE8092B301E091AC01F09155
:103ED000AD0130803982332009F4F0C10280F381D2
:103EE000E02D4081443609F41CC1453608F0AEC1CE
:103EF0003980432C5524089441085108A2E0AA2E89
:103F0000B12CAE0EBF1EDF01662477246FEF70E088
:103F1000DD24C5015F01FC0111C0D3942981D216B3
:103F200008F095CE0894611C711CDF014081443675
:103F300009F4F7C03296453608F066C1641475047A
:103F400061F711962C90119764E670E0641B71097B
:103F500033242FEF30E022193309629FC001639FA1
:103F6000900D729F900D11240E94BE33620D731D3F
:103F7000D4CF68847984442309F43AC1F901319794
:103F8000EE0FFF1FE60DF71DA180E081F0E02D2D63
:103F900030E02E1B3F0B11964C9150E0BB244A1988
:103FA0005B09249FD001259FB00D349FB00D1124D3
:103FB000692F70E06E1B7F0BCD010E94BE336A0D2E
:103FC0007B1D45CED30111966C91119740CEFA839B
:103FD000E9833F01F301618159CD8092B301E09102
:103FE000AC01F091AD0120802982222009F46BC13F
:103FF0000280F381E02D4081443609F442C0453609
:1040000008F035C13980432C5524089441085108E3
:1040100052E0A52EB12CAE0EBF1EDF016624772420
:104020006FEF70E0DD24F5015D0110C0D3942981AC
:10403000D21608F02BCD0894611C711CDF01408161
:10404000443601F13296453608F049C0461457040B
:1040500069F711962C90119764E670E0641B710962
:1040600033242FEF30E022193309629FC001639F90
:10407000900D729F900D11240E94BE33620D731D2E
:10408000D5CFDF0111966C91119700CD68847984AA
:10409000442309F448C0F9013197EE0FFF1FE60DE4
:1040A000F71DA180E081F0E02D2D30E02E1B3F0BAD
:1040B00011964C9150E0BB244A195B09249FD00112
:1040C000259FB00D349FB00D1124692F70E06E1B39
:1040D0007F0BCD010E94BE336A0D7B1DD7CCDD2046
:1040E00009F4C6C0089461087108660C771C6A0C54
:1040F0007B1CF301A1808081E82FF0E011968C9168
:1041000090E0BB248A199B0924E630E02E1B3F0B6C
:10411000829FD001839FB00D929FB00D1124642F18
:10412000D5CF618194CD3D01D30111962C91BD2D48
:104130002B9F90011124692FC90170E00E94BE33AA
:10414000A5CC442309F4A8C0F5013197EE0FFF1F59
:10415000E60DF71DA180E081F0E011968C9190E0D2
:10416000BB248A199B0944E650E04E1B5F0B849FD9
:10417000D001859FB00D949FB00D1124622FA6CF62
:104180005F01D50111966C91119761CD4423E1F047
:10419000F3013197EE0FFF1FEA0DFB1DA180E081B7
:1041A000F0E011968C9190E0BB248A199B0944E6BB
:1041B00050E04E1B5F0B849FD001859FB00D949FF4
:1041C000B00D1124622FF5CE5D01F501418150E063
:1041D00094E6292E312C429DC001439D900D529DA5
:1041E000900D1124622F70E00E94BE3330CDD301B8
:1041F00011962C91BD2D2B9F90011124692FC9017F
:1042000070E00E94BE3323CDDD20F9F008946108F0
:104210007108660C771C6A0C7B1CF301A1808081FD
:10422000E82FF0E011968C9190E0BB248A199B094D
:1042300024E630E02E1B3F0B829FD001839FB00D00
:10424000929FB00D1124642FB4CEFD01218130E086
:10425000B4E62B2E312C229DC001239D900D329D62
:10426000900D1124642F70E00E94BE33F0CCDF016A
:1042700011962C91119730E064E6262E312C229D68
:10428000C001239D900D329D900D1124642F70E08C
:104290000E94BE33FBCBD30111964C91119750E095
:1042A000E4E6F0E04E9FC0014F9F900D5E9F900DA1
:1042B0001124622F70E00E94BE33E8CB6FEF70E0F4
:1042C000C6CCD301DFCE6FEF70E0E0CBFF920F934F
:1042D0001F9386E896E040E855E260E070E00E94B7
:1042E0003130ECE9F0E0E491E093CB01E8E8F0E074
:1042F000E491E093CC0180E069EC79E041E050E0AA
:104300000E94770281E08093B1001092A201F8949C
:104310000E9409080E944E08E091B906F091BA0681
:10432000F48085E40E9462091092A5018091A501A4
:104330008093A6018091A6018093A4018091A4019D
:104340008093A3018FEF8093AA018093A9018093AA
:10435000A8018093A7018AE892E064EA70E044E44F
:104360002CE73FE000E010E00E94FA088EE293E0C4
:1043700064EA70E043E42AE33AE00E94FA0882ED3E
:1043800093E064EA70E043E42FEB3DE00E94FA081A
:1043900086E794E064EA70E042E424EF32E10E94B0
:1043A000FA088AE195E064EE70E041E422E738E142
:1043B0000E94FA0881E690E00E9476098F2D0E9403
:1043C00062091F910F91FF90089581E090E00E9493
:1043D0007609089581E090E00E94F70B089580E04F
:1043E00090E00E94F70B08950895FC0184EF91E29C
:1043F000928B818B768365831482108289E081831E
:1044000081E0828383830895FC0184810895EF9283
:10441000FF920F931F93CF93DF938C017B01EA01EF
:10442000FC01858196810E949E24F80185819681F8
:10443000B7010E941928F801858196816EEB40E052
:104440000E940C25F801858196810E94E8268883C8
:10445000F801858196810E94E8268983F80185818B
:1044600096810E94E8268A83F801858196810E94C0
:10447000E8268B83F801858196810E94E8268C834B
:10448000F801858196810E94E8268D83F801858157
:1044900096810E94E8268E83F801858196810E948C
:1044A000E8268F83F801858196810E94E826888717
:1044B000F801858196810E949E24DF91CF911F9102
:1044C0000F91FF90EF9008958F929F92AF92BF92BD
:1044D000CF92DF92EF92FF920F931F93DF93CF93D0
:1044E000CDB7DEB76A970FB6F894DEBF0FBECDBF6B
:1044F0007C01FC01858196810E94992CF701148230
:104500008E010F5F1F4F99E0A92EB12CAC0EBD1E7E
:1045100082E1C82ED12CCC0EDD1E8824839407C0E6
:10452000C80167E00E94D22E98858917D9F0F7015B
:1045300085819681B8010E94A62C882389F76A9606
:104540000FB6F894DEBF0FBECDBFCF91DF911F91A4
:104550000F91FF90EF90DF90CF90BF90AF909F9022
:104560008F900895F7018081882309F44DC0C70119
:10457000B801A5010E940722F7019180898180314D
:1045800029F1C701B801A6010E940722C60168E00F
:104590000E94D22E9A8D891761F48E898F3309F487
:1045A00061C0803488F08F3509F45AC08F3709F420
:1045B00055C080E0891568F4F7018181F701818396
:1045C00084818F5F8483B3CF8F3199F789E0891518
:1045D00098F38981803109F43FC0C701B801A60171
:1045E0000E940722C60168E00E94D22E9A8D891788
:1045F000D9F58E898F33D1F1803460F18F35C1F1D7
:104600008F3791F58CE0DACF858196810E949E24C8
:10461000F70185819681B8010E941928F7018581EB
:10462000968164EB40E00E940C25F701858196811C
:104630000E94E124882341F4F701858196810E943C
:104640009E24F701808293CFF701858196810E9495
:104650009E248DCF8F3141F489E0B0CF8CE0AACF7A
:104660008BE0A8CF8AE0A6CF80E0A8CF8AE0A6CFD3
:104670008BE0A4CFFC0162830895CF93DF93EC011C
:104680008D819E810E949E248D819E810E94AD2BF2
:104690008D819E8164E448810E940C258A81882353
:1046A00019F4DF91CF9108958981893059F08930CB
:1046B00020F08A3089F08B3051F08CED92E00E942E
:1046C0007609EFCF8BE590E00E947609EACF8EE67F
:1046D00091E00E947609E5CF87EB90E00E94760991
:1046E000E0CF8F929F92AF92BF92CF92DF92EF92E4
:1046F000FF921F93CF93DF93FB01EA01998180E042
:10470000688170E0682B792B8081823209F442C085
:10471000883209F43FC0803161F0DF91CF911F9161
:10472000FF90EF90DF90CF90BF90AF909F908F90D1
:1047300008951F8175956795882777FD8095982F37
:104740000E94393220E030E040E85EE30E942231EE
:104750004B015C01612F70E08E81681B7109882715
:1047600077FD8095982F0E9439326B017C01612F73
:1047700070E080E090E00E9437329B01AC01C701FD
:10478000B6010E949E319B01AC01C501B4010E949B
:104790002331C3CF8C818F3351F1803490F08F352A
:1047A000B9F18F3709F0B9CF882777FD8095982F19
:1047B0000E94393220E030E040E85DE30E942D3372
:1047C000ACCF8F3109F0A9CF759567957595679531
:1047D00075956795882777FD8095982F0E943932C7
:1047E00020E030E040E05FE30E942D3396CF7595E6
:1047F000679575956795882777FD8095982F0E9416
:10480000393220E030E040E85EE30E942D3385CF6E
:1048100075956795882777FD8095982F0E94393286
:1048200020E030E040E05EE30E942D3376CFCF926F
:10483000DF92EF92FF920F931F93DF93CF93CDB749
:10484000DEB761970FB6F894DEBF0FBECDBF7C0117
:10485000D62EFC01858196810E94992CCC248E0154
:104860000F5F1F4FF70185819681B8010E94A62C2A
:10487000882329F539E0C32ED12CCC0EDD1EC701CB
:10488000B801A6010E940722C60168E00E94D22E4C
:104890009989891711F5C701B801A6010E947123F2
:1048A00061960FB6F894DEBF0FBECDBFCF91DF91FA
:1048B0001F910F91FF90EF90DF90CF900895DC143F
:1048C00021F0C394DC14B0F2CDCFC80167E00E94A0
:1048D000D22E9885891771F2F4CF60E070E08EEFE8
:1048E00092ECDECF1F93CF93DF93EC01162F862F30
:1048F00060E00E94A901612F70E0FB01E656FF4FC6
:10490000E491E883FB01EA57FF4FE491F0E0EE0FFA
:10491000FF1FE458FF4F8591949189839A831B86EA
:104920001D861C861A86198618861F821E821D8285
:104930001C821B82DF91CF911F910895FF920F93EC
:104940001F93CF93DF93FC010081C181D281F89442
:104950008981F02EF0948F21898378941CE702C01E
:10496000115069F182E090E00E9464018881802307
:10497000B9F3F8948A818F218A838981802B898376
:10498000789484EF91E00E946401F89489818F21EA
:10499000898380E590E00E9464018881802311E092
:1049A00061F4789484EA91E00E946401812FDF91A0
:1049B000CF911F910F91FF90089510E0F2CF10E07A
:1049C000F5CF0F931F93CF93DF93FC011081C1812B
:1049D000D281F8948981812B89838A81012F009566
:1049E00080238A8383E090E00E9464018981802390
:1049F00089838AE090E00E9464010881789485E3CD
:104A000090E00E946401102381E009F480E0DF91CE
:104A1000CF911F910F910895DF92EF92FF920F9324
:104A20001F93CF93DF93EC01E62EF42E60FDB5C10A
:104A3000D88009811A81F894F80182819D2D909582
:104A40008923828381818D29818381E490E00E9482
:104A50006401F80182818D298283789485E090E059
:104A60000E946401E1FC7EC1D88009811A81F8941A
:104A7000F80182819D2D90958923828381818D29E2
:104A8000818381E490E00E946401F80182818D2994
:104A90008283789485E090E00E946401E2FC47C143
:104AA000D88009811A81F894F80182819D2D909512
:104AB0008923828381818D29818381E490E00E9412
:104AC0006401F80182818D298283789485E090E0E9
:104AD0000E946401E3FC10C1D88009811A81F89416
:104AE000F80182819D2D90958923828381818D2972
:104AF000818381E490E00E946401F80182818D2924
:104B00008283789485E090E00E946401E4FCD9C03F
:104B1000D88009811A81F894F80182819D2D9095A1
:104B20008923828381818D29818381E490E00E94A1
:104B30006401F80182818D298283789485E090E078
:104B40000E946401E5FCA2C0D88009811A81F89412
:104B5000F80182819D2D90958923828381818D2901
:104B6000818381E490E00E946401F80182818D29B3
:104B70008283789485E090E00E946401E6FC6BC03B
:104B8000D88009811A81F894F80182819D2D909531
:104B90008923828381818D29818381E490E00E9431
:104BA0006401F80182818D298283789485E090E008
:104BB0000E946401E7FE34C0E88009811A81F894FC
:104BC000F80182819E2D90958923828381818E298F
:104BD00081838AE090E00E946401F80182818E293D
:104BE0008283789487E390E00E946401FF2081F43F
:104BF000F894E981FA818181988190958923818354
:104C0000E981FA81828198819095892382837894C1
:104C1000DF91CF911F910F91FF90EF90DF9008955A
:104C2000E88009811A81F894F80182819E2D90957F
:104C30008923828381818E29818381E490E00E948F
:104C40006401F80182818E298283789485E090E066
:104C50000E946401CBCFD88009811A81F894F801B1
:104C600082819D2D90958923828381818D298183E5
:104C70008AE090E00E946401F80182818D2982839C
:104C8000789487E390E00E94640194CFD8800981F2
:104C90001A81F894F80182819D2D90958923828351
:104CA00081818D2981838AE090E00E946401F8016E
:104CB00082818D298283789487E390E00E94640149
:104CC0005DCFD88009811A81F894F80182819D2DE9
:104CD00090958923828381818D2981838AE090E068
:104CE0000E946401F80182818D298283789487E390
:104CF00090E00E94640126CFD88009811A81F8943F
:104D0000F80182819D2D90958923828381818D294F
:104D100081838AE090E00E946401F80182818D29FC
:104D20008283789487E390E00E946401EFCED8807C
:104D300009811A81F894F80182819D2D909589232B
:104D4000828381818D2981838AE090E00E946401C1
:104D5000F80182818D298283789487E390E00E9414
:104D60006401B8CED88009811A81F894F801828153
:104D70009D2D90958923828381818D2981838AE06D
:104D800090E00E946401F80182818D2982837894E9
:104D900087E390E00E94640181CED88009811A8166
:104DA000F894F80182819D2D9095892382838181D9
:104DB0008D2981838AE090E00E946401F80182815C
:104DC0008D298283789487E390E00E9464014ACE23
:104DD000DF92EF92FF920F931F93CF93DF93EC013B
:104DE000F88009811A81F894F80181818F298183E3
:104DF0008281EF2CE0948E21828383E090E00E94F8
:104E00006401F80181818E2181838AE090E00E9413
:104E10006401F8010081789485E390E00E946401C8
:104E20000F21FF24F394002309F4FF24E880098173
:104E30001A81F894F80181818E2981838281DE2C88
:104E4000D0948D21828383E090E00E946401F80178
:104E500081818D2181838AE090E00E946401F801C4
:104E60000081789485E390E00E946401E02211F0D3
:104E7000F2E0FF2AE88009811A81F894F801818123
:104E80008E2981838281DE2CD0948D21828383E0E0
:104E900090E00E946401F80181818D2181838AE084
:104EA00090E00E946401F8010081789485E390E02D
:104EB0000E946401E02211F0F4E0FF2AE8800981F9
:104EC0001A81F894F80181818E2981838281DE2CF8
:104ED000D0948D21828383E090E00E946401F801E8
:104EE00081818D2181838AE090E00E946401F80134
:104EF0000081789485E390E00E946401E02211F043
:104F0000F8E0FF2AE88009811A81F894F80181818C
:104F10008E2981838281DE2CD0948D21828383E04F
:104F200090E00E946401F80181818D2181838AE0F3
:104F300090E00E946401F8010081789485E390E09C
:104F40000E946401E02211F0F0E1FF2AE88009816B
:104F50001A81F894F80181818E2981838281DE2C67
:104F6000D0948D21828383E090E00E946401F80157
:104F700081818D2181838AE090E00E946401F801A3
:104F80000081789485E390E00E946401E02211F0B2
:104F9000F0E2FF2AE88009811A81F894F801818102
:104FA0008E2981838281DE2CD0948D21828383E0BF
:104FB00090E00E946401F80181818D2181838AE063
:104FC00090E00E946401F8010081789485E390E00C
:104FD0000E946401E02211F0F0E4FF2A08810980B8
:104FE000DA81C02DF8948981802B89838A81E02E13
:104FF000E0948E218A8383E090E00E94640189819D
:105000008E2189838AE090E00E946401E880789490
:1050100085E390E00E9464010E2111F080E8F82AF7
:105020008F2DDF91CF911F910F91FF90EF90DF9027
:1050300008958F929F92AF92BF92CF92DF92EF929C
:10504000FF920F931F93DF93CF9300D0CDB7DEB7BE
:105050004C01DC01FC9011960D911C911297F89473
:10506000F80182819F2D90958923828381818F29E8
:1050700081838AE090E069837A830E946401D80189
:1050800012968C9112978F2912968C93789487E3BD
:1050900090E00E946401F401F08001811281F89493
:1050A000D80112968C9112979F2D90958923129674
:1050B0008C93129711968C9111978F2911968C933E
:1050C00081E490E00E946401F80182818F2982834B
:1050D000789485E090E00E946401D401FC901196E0
:1050E0000D911C911297F894F80182819F2D909553
:1050F0008923828381818F2981838AE090E00E94C5
:105100006401D80112968C9112978F2912968C9374
:10511000789487E390E00E946401F401F0800181BB
:105120001281F894D80112968C9112979F2D909528
:10513000892312968C93129711968C9111978F292F
:1051400011968C9381E490E00E946401F8018281C1
:105150008F298283789485E090E00E946401D401D5
:10516000FC9011960D911C911297F894F801828190
:105170009F2D90958923828381818F2981838AE065
:1051800090E00E946401D80112968C9112978F29A9
:1051900012968C93789487E390E00E946401F40166
:1051A000F08001811281F894D80112968C911297A7
:1051B0009F2D9095892312968C93129711968C911E
:1051C00011978F2911968C9381E490E00E946401DD
:1051D000F80182818F298283789485E090E00E9493
:1051E0006401D401FC9011960D911C911297F894D2
:1051F000F80182819F2D90958923828381818F2957
:1052000081838AE090E00E946401D80112968C911B
:1052100012978F2912968C93789487E390E00E94DE
:105220006401F401F08001811281F894D801129692
:105230008C9112979F2D9095892312968C9312979B
:1052400011968C9111978F2911968C9381E490E09F
:105250000E946401F80182818F298283789485E01D
:1052600090E00E946401F894D4011196ED91FC91B4
:10527000129781819C919095892381831196ED915C
:10528000FC91129782819C919095892382837894D6
:1052900069817A81A62EB72ECC24DD242BC1D401BE
:1052A000EC9011960D911C911297F894F80182815F
:1052B0009E2D90958923828381818E29818381E42B
:1052C00090E00E946401D80112968C9112978E2969
:1052D00012968C93789485E090E00E946401F1FC32
:1052E00032C1D401EC9011960D911C911297F89453
:1052F000F80182819E2D90958923828381818E2958
:10530000818381E490E00E946401D80112968C911F
:1053100012978E2912968C93789485E090E00E94E3
:105320006401F2FC34C1D401EC9011960D911C91F2
:105330001297F894F80182819E2D9095892382839B
:1053400081818E29818381E490E00E946401D801EB
:1053500012968C9112978E2912968C93789485E0F0
:1053600090E00E946401F3FC36C1D401EC901196E8
:105370000D911C911297F894F80182819E2D9095C1
:105380008923828381818E29818381E490E00E9438
:105390006401D80112968C9112978E2912968C93E3
:1053A000789485E090E00E946401F4FC38C1D40157
:1053B000EC9011960D911C911297F894F80182814E
:1053C0009E2D90958923828381818E29818381E41A
:1053D00090E00E946401D80112968C9112978E2958
:1053E00012968C93789485E090E00E946401F5FC1D
:1053F0003AC1D401EC9011960D911C911297F8943A
:10540000F80182819E2D90958923828381818E2946
:10541000818381E490E00E946401D80112968C910E
:1054200012978E2912968C93789485E090E00E94D2
:105430006401F6FC3CC1D401EC9011960D911C91D5
:105440001297F894F80182819E2D9095892382838A
:1054500081818E29818381E490E00E946401D801DA
:1054600012968C9112978E2912968C93789485E0DF
:1054700090E00E946401F7FE3EC1D401FC901196B9
:105480000D911C911297F894F80182819F2D9095AF
:105490008923828381818F2981838AE090E00E9421
:1054A0006401D80112968C9112978F2912968C93D1
:1054B000789487E390E00E946401F894D4011196F7
:1054C000ED91FC91129781819C9190958923818324
:1054D0001196ED91FC91129782819C919095892370
:1054E000828378940894C11CD11CB8E0CB16D104F7
:1054F00009F424C1F501F1905F01F0FED0CEF40172
:10550000E08001811281F894D80112968C91129753
:105510009E2D9095892312968C93129711968C91BB
:1055200011978E2911968C938AE090E00E94640175
:10553000F80182818E298283789487E390E00E942B
:105540006401F1FECECEF401E08001811281F89475
:10555000D80112968C9112979E2D909589231296C0
:105560008C93129711968C9111978E2911968C938A
:105570008AE090E00E946401F80182818E29828392
:10558000789487E390E00E946401F2FECCCEF401AF
:10559000E08001811281F894D80112968C911297C3
:1055A0009E2D9095892312968C93129711968C912B
:1055B00011978E2911968C938AE090E00E946401E5
:1055C000F80182818E298283789487E390E00E949B
:1055D0006401F3FECACEF401E08001811281F894E7
:1055E000D80112968C9112979E2D90958923129630
:1055F0008C93129711968C9111978E2911968C93FA
:105600008AE090E00E946401F80182818E29828301
:10561000789487E390E00E946401F4FEC8CEF40120
:10562000E08001811281F894D80112968C91129732
:105630009E2D9095892312968C93129711968C919A
:1056400011978E2911968C938AE090E00E94640154
:10565000F80182818E298283789487E390E00E940A
:105660006401F5FEC6CEF401E08001811281F89458
:10567000D80112968C9112979E2D9095892312969F
:105680008C93129711968C9111978E2911968C9369
:105690008AE090E00E946401F80182818E29828371
:1056A000789487E390E00E946401F6FEC4CEF40192
:1056B000E08001811281F894D80112968C911297A2
:1056C0009E2D9095892312968C93129711968C910A
:1056D00011978E2911968C938AE090E00E946401C4
:1056E000F80182818E298283789487E390E00E947A
:1056F0006401F7FCC2CEF401F08001811281F894BC
:10570000D80112968C9112979F2D9095892312960D
:105710008C93129711968C9111978F2911968C93D7
:1057200081E490E00E946401F80182818F298283E4
:10573000789485E090E00E946401BFCE0F900F90B6
:10574000CF91DF911F910F91FF90EF90DF90CF905D
:10575000BF90AF909F908F900895FF920F931F93EB
:10576000CF93DF93EC01F88009811A81F894F80156
:1057700082819F2D90958923828381818F298183C6
:1057800081E490E00E946401F80182818F29828384
:10579000789485E090E00E946401F88009811A8184
:1057A000F894F80182819F2D9095892382838181CD
:1057B0008F29818381E490E00E946401F801828155
:1057C0008F298283789485E090E00E946401F880BC
:1057D00009811A81F894F80182819F2D909589237F
:1057E000828381818F2981838AE090E00E94640115
:1057F000F80182818F298283789487E390E00E9468
:105800006401F88009811A81F894F80182819F2D42
:1058100090958923828381818F2981838AE090E01A
:105820000E946401F80182818F298283789487E342
:1058300090E00E946401F88009811A81F894F801CF
:1058400082819F2D90958923828381818F298183F5
:1058500081E490E00E946401F80182818F298283B3
:10586000789485E090E00E946401F88009811A81B3
:10587000F894F80182819F2D9095892382838181FC
:105880008F29818381E490E00E946401F801828184
:105890008F298283789485E090E00E946401F880EB
:1058A00009811A81F894F80182819F2D90958923AE
:1058B000828381818F2981838AE090E00E94640144
:1058C000F80182818F298283789487E390E00E9497
:1058D0006401F88009811A81F894F80182819F2D72
:1058E00090958923828381818F2981838AE090E04A
:1058F0000E946401F80182818F298283789487E372
:1059000090E00E946401F894E981FA818181988194
:10591000909589238183E981FA818281988190958C
:10592000892382837894DF91CF911F910F91FF900B
:105930000895FC011386158614861286118610863A
:105940001782168215821482138208957F928F9295
:105950009F92AF92BF92CF92DF92EF92FF920F93FE
:105960001F93CF93DF93EC018B018D85882319F171
:105970009B811B861D861C8680E0F80190839C819C
:1059800091839D8192839E8193839F819483988547
:105990009583998596839A859783DF91CF911F91FF
:1059A0000F91FF90EF90DF90CF90BF90AF909F90BE
:1059B0008F907F900895C880E980FA80F894F7016D
:1059C0008181BC2CB0948B21818378949CE7D92E63
:1059D00002C0DA9431F182E090E00E946401F701A4
:1059E00080818C21B1F3F89482818B218283818123
:1059F0008C298183789484EF91E00E946401F8946B
:105A0000F70181818B21818380E590E00E94640110
:105A1000F701E080789484EA91E00E946401CE204E
:105A200029F01B861D861C8680E0B7CFD880E980D0
:105A3000FA80F894F70182819D2D909589238283C5
:105A400081818D29818381E490E00E946401F701C6
:105A500082818D298283789485E090E00E946401A0
:105A6000D880E980FA80F894F70182819D2D909585
:105A70008923828381818D29818381E490E00E9442
:105A80006401F70182818D298283789485E090E01A
:105A90000E946401D880E980FA80F894F70182813D
:105AA0009D2D90958923828381818D29818381E435
:105AB00090E00E946401F70182818D2982837894AD
:105AC00085E090E00E946401D880E980FA80F89433
:105AD000F70182819D2D90958923828381818D2973
